:100000000C942A000C94E0150C9413160C944616CC
:100010000C9447000C9447000C94ED0F0C9444266C
:100020000C94BA0F0C94540F0C94E3130C94A71374
:100030000C9447000C9447000C9447000C94470024
:100040000C9447000C9447000C9447000C94470014
:100050000C94470011241FBECFE5D8E0DEBFCDBF12
:1000600011E0A0E6B0E0EEECF0E702C005900D92E2
:10007000A438B107D9F716E0A4E8B1E001C01D9299
:10008000A234B107E1F70E9400380C9465380C9453
:100090000000EF92FF920F931F937B018C0120E0F1
:1000A00030E040E05FE40E94F50388238CF0C80153
:1000B000B70120E030E040E05FE40E94C1010E940F
:1000C000E3049B01AC01205030404040504806C042
:1000D000C801B7010E94E3049B01AC01B901CA0148
:1000E0001F910F91FF90EF900895A0E0B0E0EBE733
:1000F000F0E00C942E38DC012B01FA019C91923037
:1001000008F439C1EB018881823008F433C194309E
:1001100069F4843009F02FC111969C91119789815F
:10012000981709F428C1A5E6B0E025C1843009F488
:1001300021C18230A9F4923009F01DC19A01AD01AC
:1001400088E0EA010990AE01E90109929E0181501F
:10015000C1F7E201898111969C918923818308C1AD
:10016000923009F407C112962D903C901397EB0141
:100170008A819B811496AD90BD90CD90DC901797AD
:10018000EC80FD800E811F819101281B390BB90184
:1001900037FF04C066277727621B730B6032710537
:1001A0000CF061C0121613066CF537014801062EDB
:1001B00004C096948794779467940A94D2F721E0C8
:1001C00030E040E050E004C0220F331F441F551FB1
:1001D0006A95D2F721503040404050402E213F21B7
:1001E00040235123211531054105510521F021E01E
:1001F00030E040E050E079018A01E628F72808293C
:1002000019293CC0232BD1F1260E371E350146019A
:10021000062E04C096948794779467940A94D2F734
:1002200021E030E040E050E004C0220F331F441FC3
:10023000551F6A95D2F721503040404050402A2146
:100240003B214C215D21211531054105510521F04E
:1002500021E030E040E050E059016A01A628B728CB
:10026000C828D9280BC0821593052CF01C01AA249C
:10027000BB24650103C0EE24FF24870111969C91E5
:10028000D20111968C91981709F445C0992339F041
:10029000A80197012A193B094C095D0906C0A6016E
:1002A00095012E193F09400B510B57FD08C01182D3
:1002B0003382228224833583468357831DC081E0A5
:1002C00081833382228288279927DC01821B930B4A
:1002D000A40BB50B84839583A683B7830DC0220F2F
:1002E000331F441F551F24833583468357838281E0
:1002F000938101979383828324813581468157813D
:10030000DA01C9010197A109B1098F5F9F4FAF4F72
:10031000BF4328F30BC0918333822282EA0CFB1C7B
:100320000C1D1D1DE482F5820683178383E0808304
:10033000248135814681578157FF1AC0C901AA27F8
:1003400097FDA095BA2F81709070A070B0705695EF
:10035000479537952795822B932BA42BB52B848318
:100360009583A683B7838281938101969383828349
:10037000DF0101C0D201CD01CDB7DEB7E2E10C94BF
:100380004A38A0E2B0E0E7ECF1E00C943A38698337
:100390007A838B839C832D833E834F835887E9E048
:1003A000EE2EF12CEC0EFD1ECE010196B7010E943F
:1003B000D4068E010F5E1F4FCE010596B8010E9434
:1003C000D4068A8991E089278A8BC701B801AE01DA
:1003D000475E5F4F0E9475000E94FF05A096E6E011
:1003E0000C945638A0E2B0E0E8EFF1E00C943A3813
:1003F00069837A838B839C832D833E834F835887C5
:10040000F9E0EF2EF12CEC0EFD1ECE010196B701A6
:100410000E94D4068E010F5E1F4FCE010596B801D3
:100420000E94D406C701B801AE01475E5F4F0E942B
:1004300075000E94FF05A096E6E00C945638A0E2F5
:10044000B0E0E5E2F2E00C942E3869837A838B8386
:100450009C832D833E834F835887CE010196BE0136
:10046000675F7F4F0E94D406CE010596BE016F5E86
:100470007F4F0E94D4069985923088F08989823016
:10048000C8F0943019F4823051F404C0843029F457
:10049000923081F485E690E0C6C0923049F420E0C5
:1004A0009A858A89981321E02A87CE010996BBC0D4
:1004B000823049F420E09A858A89981321E02A8BBA
:1004C000CE014196B0C02D843E844F8458886D88FB
:1004D0007E888F88988CEE24FF248701AA24BB2471
:1004E000650140E050E060E070E0E0E0F0E0C10174
:1004F00081709070892BE9F0E60CF71C081D191D1E
:100500009A01AB012A0D3B1D4C1D5D1D80E090E062
:10051000A0E0B0E0E614F7040805190520F481E036
:1005200090E0A0E0B0E0BA01A901480F591F6A1F8E
:100530007B1FAA0CBB1CCC1CDD1C97FE08C081E0F5
:1005400090E0A0E0B0E0A82AB92ACA2ADB2A3196B6
:10055000E032F10549F0660C771C881C991C569412
:10056000479437942794C3CFFA85EA892B893C892D
:100570008B859C85280F391F2E5F3F4F17C0CA01FE
:1005800081709070892B61F016950795F794E79428
:1005900080E090E0A0E0B0E8E82AF92A0A2B1B2BC3
:1005A00076956795579547952F5F3F4F77FDE7CF36
:1005B0000CC0440F551F661F771F17FD4160EE0CDE
:1005C000FF1C001F111F21503040403090E05907A0
:1005D00090E0690790E4790760F32B8F3C8FDB0193
:1005E000CA018F779070A070B07080349105A1051A
:1005F000B10561F447FD0AC0E114F10401051105DC
:1006000029F0405C5F4F6F4F7F4F40781A8EFE1786
:1006100011F081E08A8F4D8F5E8F6F8F78A383E01A
:10062000898FCE0149960E94FF05A096E2E10C94C5
:100630004A38A8E1B0E0EFE1F3E00C943638698382
:100640007A838B839C832D833E834F835887B9E0C5
:10065000EB2EF12CEC0EFD1ECE010196B7010E948F
:10066000D4068E010F5E1F4FCE010596B8010E9481
:10067000D4062985223008F47EC03989323010F43E
:10068000B8017CC08A859A8989278A87243011F02D
:10069000223031F4231709F06EC065E670E06EC0B9
:1006A000343039F41D861E861F86188A1C861B86E8
:1006B00004C0323021F484E08987B7015FC02B8504
:1006C0003C858B899C89281B390B3C872B87ED84C3
:1006D000FE840F851889AD88BE88CF88D88CEA142F
:1006E000FB040C051D0540F4EE0CFF1C001F111F40
:1006F000215030403C872B8720E030E040E050E044
:1007000080E090E0A0E0B0E460E070E0EA14FB0478
:100710000C051D0540F0282B392B4A2B5B2BEA18C2
:10072000FB080C091D09B695A79597958795EE0CC2
:10073000FF1C001F111F6F5F7F4F6F31710531F775
:10074000DA01C9018F779070A070B0708034910584
:10075000A105B10561F427FD0AC0E114F10401050A
:10076000110529F0205C3F4F4F4F5F4F20782D87B8
:100770003E874F87588BBE01675F7F4FCB010E943A
:10078000FF056896EAE00C945238A8E1B0E0EBEC83
:10079000F3E00C943A3869837A838B839C832D83AE
:1007A0003E834F83588789E0E82EF12CEC0EFD1E26
:1007B000CE010196B7010E94D4068E010F5E1F4F35
:1007C000CE010596B8010E94D4068985823040F09A
:1007D0008989823028F0C701B8010E944C0701C006
:1007E0008FEF6896E6E00C945638A8E1B0E0EBEFA6
:1007F000F3E00C943A3869837A838B839C832D834E
:100800003E834F83588789E0E82EF12CEC0EFD1EC5
:10081000CE010196B7010E94D4068E010F5E1F4FD4
:10082000CE010596B8010E94D4068985823040F039
:100830008989823028F0C701B8010E944C0701C0A5
:100840008FEF6896E6E00C945638A8E1B0E0EBE252
:10085000F4E00C943A3869837A838B839C832D83EC
:100860003E834F83588789E0E82EF12CEC0EFD1E65
:10087000CE010196B7010E94D4068E010F5E1F4F74
:10088000CE010596B8010E94D4068985823040F0D9
:100890008989823028F0C701B8010E944C0701C045
:1008A00081E06896E6E00C945638A8E1B0E0EBE50C
:1008B000F4E00C943A3869837A838B839C832D838C
:1008C0003E834F83588789E0E82EF12CEC0EFD1E05
:1008D000CE010196B7010E94D4068E010F5E1F4F14
:1008E000CE010596B8010E94D4068985823040F079
:1008F0008989823028F0C701B8010E944C0701C0E5
:1009000081E06896E6E00C945638A8E0B0E0EBE8A9
:10091000F4E00C9437389B01AC0183E08983DA0161
:10092000C9018827B7FD83959927AA27BB27B82E29
:10093000211531054105510519F482E089833AC03A
:100940008823A9F0203080E0380780E0480780E85D
:10095000580729F460E070E080E09FEC30C0EE249E
:10096000FF248701E21AF30A040B150B02C0790178
:100970008A018EE1C82ED12CDC82CB82ED82FE82F0
:100980000F831887C801B7010E94B0050197181698
:10099000190684F4082E04C0EE0CFF1C001F111F62
:1009A0000A94D2F7ED82FE820F831887C81AD90AFB
:1009B000DC82CB82BA82CE0101960E94FF05289686
:1009C000E9E00C945338ACE0B0E0E9EEF4E00C94CC
:1009D0003E3869837A838B839C83CE010196BE0166
:1009E0006B5F7F4F0E94D4068D81823061F182302F
:1009F00050F1843021F48E81882351F12EC02F8153
:100A0000388537FD20C06E812F3131051CF06623FB
:100A1000F9F023C08EE190E0821B930B29853A8583
:100A20004B855C8504C056954795379527958A95E3
:100A3000D2F76623B1F050954095309521953F4F00
:100A40004F4F5F4F0EC020E030E040E050E009C063
:100A50002FEF3FEF4FEF5FE704C020E030E040E0D2
:100A600050E8B901CA012C96E2E00C945A38A8E08B
:100A7000B0E0EDE3F5E00C9436387B018C016115B4
:100A800071058105910519F482E0898360C083E0D6
:100A900089838EE1C82ED12CDC82CB82ED82FE824E
:100AA0000F831887C801B7010E94B005FC01319778
:100AB000F7FF3BC0222733272E1B3F0B570168014E
:100AC000022E04C0D694C794B794A7940A94D2F780
:100AD00040E050E060E070E081E090E0A0E0B0E055
:100AE00004C0880F991FAA1FBB1F2A95D2F7019730
:100AF000A109B1098E219F21A023B1230097A1054F
:100B0000B10521F041E050E060E070E04A295B2946
:100B10006C297D294D835E836F8378878EE190E019
:100B20008E1B9F0B9C838B8312C0309781F00E2EFF
:100B300004C0EE0CFF1C001F111F0A94D2F7ED82B7
:100B4000FE820F831887CE1ADF0ADC82CB821A82DC
:100B5000CE0101960E94FF052896EAE00C945238D7
:100B6000EF92FF920F931F937B018C0180E0E816B8
:100B700080E0F80681E0080780E0180788F48FEF2E
:100B8000E816F1040105110531F028F088E090E045
:100B9000A0E0B0E017C080E090E0A0E0B0E012C0BC
:100BA00080E0E81680E0F80680E0080781E018079A
:100BB00028F088E190E0A0E0B0E004C080E190E09F
:100BC000A0E0B0E020E230E040E050E0281B390B2C
:100BD0004A0B5B0B04C016950795F794E7948A952A
:100BE000D2F7F701E359FF4F8081281B31094109F2
:100BF0005109C9011F910F91FF90EF900895DF9265
:100C0000EF92FF920F931F93FC01E480F580068121
:100C10001781D1808081823048F480E090E0A0E1AB
:100C2000B0E0E82AF92A0A2B1B2BA5C0843009F46E
:100C30009FC0823021F4EE24FF24870105C0E11417
:100C4000F1040105110519F4E0E0F0E096C06281BD
:100C500073819FEF623879070CF05BC022E83FEFA9
:100C6000261B370B2A3131052CF020E030E040E024
:100C700050E02AC0B801A701022E04C076956795FE
:100C8000579547950A94D2F781E090E0A0E0B0E054
:100C900004C0880F991FAA1FBB1F2A95D2F701977E
:100CA000A109B1098E219F21A023B1230097A1059D
:100CB000B10521F081E090E0A0E0B0E09A01AB0145
:100CC000282B392B4A2B5B2BDA01C9018F779070C7
:100CD000A070B07080349105A105B10539F427FFEB
:100CE00009C0205C3F4F4F4F5F4F04C0215C3F4F16
:100CF0004F4F5F4FE0E0F0E02030A0E03A07A0E087
:100D00004A07A0E45A0710F0E1E0F0E079018A0117
:100D100027C06038710564F5FB01E158FF4FD80129
:100D2000C7018F779070A070B07080349105A105D5
:100D3000B10539F4E7FE0DC080E490E0A0E0B0E03A
:100D400004C08FE390E0A0E0B0E0E80EF91E0A1FB7
:100D50001B1F17FF05C016950795F794E79431966A
:100D600087E016950795F794E7948A95D1F705C023
:100D7000EE24FF248701EFEFF0E06E2F67956627E2
:100D80006795902F9F77D794DD24D7948E2F8695E3
:100D9000492F462B582F5D29B701CA011F910F918A
:100DA000FF90EF90DF900895FC01DB0140815181BD
:100DB0002281622F6F7770E0221F2227221F9381EA
:100DC000892F880F822B282F30E0991F9927991F90
:100DD00011969C93119721153105A9F541155105DF
:100DE0006105710511F482E037C082E89FEF139628
:100DF0009C938E9312979A01AB0167E0220F331FE9
:100E0000441F551F6A95D1F783E08C930DC0220FC4
:100E1000331F441F551F12968D919C911397019774
:100E200013969C938E931297203080E0380780E0D1
:100E3000480780E4580758F314962D933D934D933B
:100E40005C93179708952F3F310579F441155105AB
:100E50006105710519F484E08C93089564FF03C063
:100E600081E08C9312C01C9210C02F573040139613
:100E70003C932E93129783E08C9387E0440F551F89
:100E8000661F771F8A95D1F7706414964D935D9312
:100E90006D937C93179708951F93DC01FB019C9140
:100EA000923008F447C08081823008F443C0943007
:100EB00051F411961C91843099F58181682F70E06E
:100EC000611B71093FC0843021F0923031F48230CF
:100ED000B9F18181882389F12DC011961C91119758
:100EE0008230F1F081811817D9F412962D913C913E
:100EF0001397828193818217930794F028173907FB
:100F0000BCF014968D919D910D90BC91A02D2481E3
:100F1000358146815781281739074A075B0718F43E
:100F2000112341F00AC082179307A407B50740F4C4
:100F3000112319F061E070E005C06FEF7FEF02C090
:100F400060E070E0CB011F910895DF93CF93CDB7A0
:100F5000DEB7E0E4F0E01082E9E2F0E087E68083CB
:100F6000AAE2B0E0EAE2F0E0808180618C93AAE23C
:100F7000B0E0EAE2F0E0808188608C93E0E4F0E0A9
:100F80008EE88083CF91DF910895DF93CF930F9206
:100F9000CDB7DEB78983EBE2F0E08081829586955C
:100FA0008770882F90E0817090700097A1F3ECE239
:100FB000F0E089818083EBE2F0E080818295869584
:100FC00086958370882F90E081709070009799F3D8
:100FD000ABE2B0E0EBE2F0E0808180648C930F90B4
:100FE000CF91DF910895DF93CF9300D000D000D050
:100FF000CDB7DEB79E838D8319821A821B821C8235
:1010000015C029813A818D819E81FC01E20FF31F79
:1010100080810E94C50789819A81AB81BC8101963C
:10102000A11DB11D89839A83AB83BC8389819A8179
:10103000AB81BC818A309105A105B10510F32696DC
:101040000FB6F894DEBF0FBECDBFCF91DF910895EC
:10105000DF93CF9300D0CDB7DEB79A838983EBE2DD
:10106000F0E080818823DCF7ECE2F0E08081E98128
:10107000FA8180830F900F90CF91DF910895DF93D5
:10108000CF930F92CDB7DEB71982898180688983AB
:101090008981826089838981846089838981877F4E
:1010A0008983E0E4F0E089818083E9E2F0E083E392
:1010B0008083AAE2B0E0EAE2F0E080818B7F8C934B
:1010C000AAE2B0E0EAE2F0E0808188608C93AAE2D4
:1010D000B0E0EAE2F0E0808180618C930F90CF91E4
:1010E000DF910895DF93CF930F92CDB7DEB7898359
:1010F000EBE2F0E08081829586958770882F90E002
:10110000817090700097A1F3ECE2F0E08981808318
:101110000F90CF91DF910895DF93CF93CDB7DEB7D6
:10112000EBE2F0E080818823DCF7ECE2F0E0808104
:10113000CF91DF9108950F931F93DF93CF93CDB796
:10114000DEB760970FB6F894DEBF0FBECDBF6D87D8
:101150007E878F87988B19828D859E85AF85B8890C
:101160000097A105B10591F580E30E94720848C07F
:101170008981082F10E08D859E85AF85B8892AE08A
:1011800030E040E050E0BC01CD010E940C38DC01B1
:10119000CB01282F205DCE010296FC01E00FF11F4C
:1011A000208389818F5F89838D859E85AF85B889EE
:1011B0002AE030E040E050E0BC01CD010E940C3854
:1011C000DA01C9018D879E87AF87B88B8D859E8593
:1011D000AF85B8890097A105B10551F60EC0898188
:1011E000815089838981282F30E0CE010296FC014D
:1011F000E20FF31F80810E9472088981882379F7AA
:1012000060960FB6F894DEBF0FBECDBFCF91DF91D1
:101210001F910F910895DF93CF9300D0CDB7DEB724
:101220008A8381E089838A81803108F00FC28A81B4
:101230008823F1F4AFE4B0E0EFE4F0E080818E7F4A
:101240008C93AFE4B0E0EFE4F0E080818D7F8C938D
:10125000AEE4B0E0EEE4F0E08081877F8C93AEE412
:10126000B0E0EEE4F0E080818F7E8C931982EEC1D5
:101270008A818130F1F4AFE4B0E0EFE4F0E0808106
:1012800081608C93AFE4B0E0EFE4F0E080818D7F8B
:101290008C93AEE4B0E0EEE4F0E08081877F8C9345
:1012A000AEE4B0E0EEE4F0E080818F7E8C931982B2
:1012B000CDC18A818230F1F4AFE4B0E0EFE4F0E038
:1012C00080818E7F8C93AFE4B0E0EFE4F0E080812A
:1012D00082608C93AEE4B0E0EEE4F0E08081877F42
:1012E0008C93AEE4B0E0EEE4F0E080818F7E8C93EE
:1012F0001982ACC18A818330F1F4AFE4B0E0EFE44D
:10130000F0E0808181608C93AFE4B0E0EFE4F0E046
:10131000808182608C93AEE4B0E0EEE4F0E0808106
:10132000877F8C93AEE4B0E0EEE4F0E080818F7EC6
:101330008C9319828BC18A818430F1F4AFE4B0E0E0
:10134000EFE4F0E080818E7F8C93AFE4B0E0EFE4D7
:10135000F0E080818D7F8C93AEE4B0E0EEE4F0E0CD
:10136000808188608C93AEE4B0E0EEE4F0E08081B0
:101370008F7E8C9319826AC18A818530F1F4AFE443
:10138000B0E0EFE4F0E0808181608C93AFE4B0E006
:10139000EFE4F0E080818D7F8C93AEE4B0E0EEE48A
:1013A000F0E0808188608C93AEE4B0E0EEE4F0E0A1
:1013B00080818F7E8C93198249C18A818630F1F4B5
:1013C000AFE4B0E0EFE4F0E080818E7F8C93AFE497
:1013D000B0E0EFE4F0E0808182608C93AEE4B0E0B6
:1013E000EEE4F0E0808188608C93AEE4B0E0EEE45F
:1013F000F0E080818F7E8C93198228C18A818730AA
:10140000F1F4AFE4B0E0EFE4F0E0808181608C9330
:10141000AFE4B0E0EFE4F0E0808182608C93AEE472
:10142000B0E0EEE4F0E0808188608C93AEE4B0E060
:10143000EEE4F0E080818F7E8C93198207C18A816F
:101440008830F1F4AFE4B0E0EFE4F0E080818E7F2B
:101450008C93AFE4B0E0EFE4F0E080818D7F8C937B
:10146000AEE4B0E0EEE4F0E08081877F8C93AEE400
:10147000B0E0EEE4F0E0808180618C931982E6C0F8
:101480008A818930F1F4AFE4B0E0EFE4F0E08081EC
:1014900081608C93AFE4B0E0EFE4F0E080818D7F79
:1014A0008C93AEE4B0E0EEE4F0E08081877F8C9333
:1014B000AEE4B0E0EEE4F0E0808180618C931982CC
:1014C000C5C08A818A30F1F4AFE4B0E0EFE4F0E027
:1014D00080818E7F8C93AFE4B0E0EFE4F0E0808118
:1014E00082608C93AEE4B0E0EEE4F0E08081877F30
:1014F0008C93AEE4B0E0EEE4F0E0808180618C9308
:101500001982A4C08A818B30F1F4AFE4B0E0EFE43B
:10151000F0E0808181608C93AFE4B0E0EFE4F0E034
:10152000808182608C93AEE4B0E0EEE4F0E08081F4
:10153000877F8C93AEE4B0E0EEE4F0E080818061E0
:101540008C93198283C08A818C30F1F4AFE4B0E0CF
:10155000EFE4F0E080818E7F8C93AFE4B0E0EFE4C5
:10156000F0E080818D7F8C93AEE4B0E0EEE4F0E0BB
:10157000808188608C93AEE4B0E0EEE4F0E080819E
:1015800080618C93198262C08A818D30F1F4AFE45E
:10159000B0E0EFE4F0E0808181608C93AFE4B0E0F4
:1015A000EFE4F0E080818D7F8C93AEE4B0E0EEE478
:1015B000F0E0808188608C93AEE4B0E0EEE4F0E08F
:1015C000808180618C93198241C08A818E30F1F4D0
:1015D000AFE4B0E0EFE4F0E080818E7F8C93AFE485
:1015E000B0E0EFE4F0E0808182608C93AEE4B0E0A4
:1015F000EEE4F0E0808188608C93AEE4B0E0EEE44D
:10160000F0E0808180618C93198220C08A818F30C4
:10161000E9F4AFE4B0E0EFE4F0E0808181608C9326
:10162000AFE4B0E0EFE4F0E0808182608C93AEE460
:10163000B0E0EEE4F0E0808188608C93AEE4B0E04E
:10164000EEE4F0E0808180618C93198289810F90B3
:101650000F90CF91DF910895DF93CF9300D000D00A
:10166000CDB7DEB78A837C836B8381E089838A81EF
:10167000883008F001C18A818823B9F4AEE4B0E073
:10168000EEE4F0E080818E7F8C93AEE4B0E0EEE497
:10169000F0E080818D7F8C93AEE4B0E0EEE4F0E08A
:1016A00080818B7F8C931982E7C08A81813009F514
:1016B000AEE4B0E0EEE4F0E0808181608C93AEE4D3
:1016C000B0E0EEE4F0E080818D7F8C93AEE4B0E09A
:1016D000EEE4F0E080818B7F8C93EB81FC818DEBDD
:1016E00097E3A6E0B4E380839183A283B383198256
:1016F000C3C08A81823009F5AEE4B0E0EEE4F0E0E8
:1017000080818E7F8C93AEE4B0E0EEE4F0E08081E7
:1017100082608C93AEE4B0E0EEE4F0E080818B7FF9
:101720008C93EB81FC818DEB97E3A6E8B5E3808396
:101730009183A283B38319829FC08A81833009F584
:10174000AEE4B0E0EEE4F0E0808181608C93AEE442
:10175000B0E0EEE4F0E0808182608C93AEE4B0E033
:10176000EEE4F0E080818B7F8C93EB81FC818DEB4C
:1017700097E3A6E0B7E380839183A283B3831982C2
:101780007BC08A81843009F5AEE4B0E0EEE4F0E09D
:1017900080818E7F8C93AEE4B0E0EEE4F0E0808157
:1017A0008D7F8C93AEE4B0E0EEE4F0E08081846065
:1017B0008C93EB81FC818DEB97E3A6E0B8E380830B
:1017C0009183A283B383198257C08A81853009F53A
:1017D000AEE4B0E0EEE4F0E0808181608C93AEE4B2
:1017E000B0E0EEE4F0E080818D7F8C93AEE4B0E079
:1017F000EEE4F0E0808184608C93EB81FC818DEBE2
:1018000097E3A6E0B9E380839183A283B38319822F
:1018100033C08A818630B9F4AEE4B0E0EEE4F0E0A3
:1018200080818E7F8C93AEE4B0E0EEE4F0E08081C6
:1018300082608C93AEE4B0E0EEE4F0E080818460FE
:101840008C93198219C08A818730B1F4AEE4B0E07C
:10185000EEE4F0E0808181608C93AEE4B0E0EEE4F1
:10186000F0E0808182608C93AEE4B0E0EEE4F0E0E2
:10187000808184608C93198289810F900F900F90E2
:101880000F90CF91DF910895DF93CF9300D00F9207
:10189000CDB7DEB78A836B8381E089838A8182300A
:1018A00008F072C08B81823008F06EC08B81882373
:1018B000A9F58A818823B9F4AFE4B0E0EFE4F0E061
:1018C00080818F7B8C93AFE4B0E0EFE4F0E0808127
:1018D00080688C93A1E3B0E0E1E3F0E08081806276
:1018E0008C93198251C08A81813009F04DC0AFE4D8
:1018F000B0E0EFE4F0E0808180648C93AFE4B0E08E
:10190000EFE4F0E0808180688C93A1E3B0E0E1E354
:10191000F0E0808180628C93198236C08B818130A7
:1019200099F58A818823B9F4AFE4B0E0EFE4F0E000
:1019300080818F7E8C93AFE4B0E0EFE4F0E08081B3
:1019400080628C93A1E3B0E0E1E3F0E0808180610C
:101950008C93198219C08A818130B1F4AFE4B0E070
:10196000EFE4F0E0808180618C93AFE4B0E0EFE4DD
:10197000F0E0808180628C93A1E3B0E0E1E3F0E0ED
:10198000808180618C93198289810F900F900F90D4
:10199000CF91DF910895DF93CF93CDB7DEB7AEE45B
:1019A000B0E0EEE4F0E0808180688C93CF91DF912D
:1019B0000895DF93CF9300D0CDB7DEB79A838983A4
:1019C000ECE4F0E089819A81918380830F900F90FD
:1019D000CF91DF910895DF93CF9300D0CDB7DEB7DD
:1019E0009A83898389819A81009741F0ECE4F0E041
:1019F00080819181E981FA81918380830F900F909A
:101A0000CF91DF910895DF93CF9300D0CDB7DEB7AC
:101A10009A838983EAE4F0E089819A8191838083C3
:101A20000F900F90CF91DF910895DF93CF9300D067
:101A3000CDB7DEB79A838983E8E4F0E089819A81A3
:101A4000918380830F900F90CF91DF910895DF9362
:101A5000CF9300D0CDB7DEB79A838983E6E4F0E078
:101A600089819A81918380830F900F90CF91DF912C
:101A70000895DF93CF9300D0CDB7DEB79A838983E3
:101A800089819A81009741F0E6E4F0E080819181BC
:101A9000E981FA81918380830F900F90CF91DF913C
:101AA0000895DF93CF93CDB7DEB7AFE5B0E0EFE5B4
:101AB000F0E0808180688C93A9E5B0E0E9E5F0E092
:101AC000808184608C93CF91DF910895DF93CF93D1
:101AD000CDB7DEB7A9E5B0E0E9E5F0E080818B7F26
:101AE0008C93CF91DF910895DF93CF93CDB7DEB77D
:101AF000AFE5B0E0EFE5F0E0808180688C93A9E588
:101B0000B0E0E9E5F0E0808188608C93CF91DF91CF
:101B10000895DF93CF93CDB7DEB7A9E5B0E0E9E54F
:101B2000F0E08081877F8C93CF91DF910895DF93E0
:101B3000CF93CDB7DEB7AFE5B0E0EFE5F0E0808161
:101B400080688C93A9E5B0E0E9E5F0E080818061F0
:101B50008C93CF91DF910895DF93CF93CDB7DEB70C
:101B6000A9E5B0E0E9E5F0E080818F7E8C93CF912C
:101B7000DF910895DF93CF93CDB7DEB7AFE5B0E047
:101B8000EFE5F0E0808180688C93A9E5B0E0E9E5BD
:101B9000F0E0808180628C93CF91DF910895DF9394
:101BA000CF93CDB7DEB7A9E5B0E0E9E5F0E08081FD
:101BB0008F7D8C93CF91DF9108950F931F93DF93C7
:101BC000CF93CDB7DEB766970FB6F894DEBF0FBEE2
:101BD000CDBF8E874F87588B698B7A8B3C8B2B8B35
:101BE0001E8B0D8B81E0898780E090E0A0E0B0E063
:101BF0008A879B87AC87BD871D821E821F821886BD
:101C00001C821B821A8219829E01265F3F4F8E859D
:101C1000B9010E942C0B6F85788989899A8920E007
:101C200030E040E050E00E94550418166CF46F85D7
:101C3000788989899A8920E030E040E050E00E946C
:101C4000C50318160CF06BC02A853B854C855D8555
:101C50006F85788989899A890E941903DC01CB01F3
:101C6000BC01CD010E944900DC01CB018D839E8324
:101C7000AF83B8878D819E81AF81B8852FEF3FEF0D
:101C800040E050E0BC01CD010E940C38DC01CB01EA
:101C90009A838983EB89FC8989819A8191838083E6
:101CA00089819A810097D9F489819A810E94D90CFF
:101CB0008D819E81AF81B8852FEF3FEF40E050E0EE
:101CC000BC01CD010E940C38DA01C9019C838B83D1
:101CD000ED89FE898B819C81918380831FC08981DE
:101CE0009A810097D9F089819A810E94D90C8D81BF
:101CF0009E81AF81B8852FEF3FEF40E050E0BC01FF
:101D0000CD010E940C38DA01C90101969C838B83B6
:101D1000ED89FE898B819C819183808319868985D9
:101D200066960FB6F894DEBF0FBECDBFCF91DF91A0
:101D30001F910F910895DF93CF93CDB7DEB76197D1
:101D40000FB6F894DEBF0FBECDBF8B874C875D8783
:101D50006E877F87398B288B80E090E0A0E0B0E031
:101D60008F839887A987BA8780E090E0A0E0B0E0F1
:101D70008B839C83AD83BE831A8219829E01295F67
:101D80003F4F8B85B9010E942C0B87EC90E00E949D
:101D9000030D6C857D858E859F8520E030E040E0D9
:101DA00050E00E945504181664F46C857D858E857C
:101DB0009F8520E030E040E050E00E94C503181607
:101DC00064F58F819885A985BA85BC01CD0120E095
:101DD00030E048E453E40E941F02DC01CB018B8316
:101DE0009C83AD83BE836C857D858E859F852B818D
:101DF0003C814D815E810E941903DC01CB01BC0155
:101E0000CD010E944900DC01CB019A838983E889D6
:101E1000F98989819A819183808361960FB6F894BC
:101E2000DEBF0FBECDBFCF91DF910895DF93CF937B
:101E30000F92CDB7DEB7898389818230A8F489817A
:101E4000813041F4AEE4B0E0EEE4F0E08081806403
:101E50008C930AC08981882339F4AEE4B0E0EEE4C3
:101E6000F0E080818F7B8C930F90CF91DF9108956C
:101E7000DF93CF9300D00F92CDB7DEB79B838A83D9
:101E800081E089838A819B81009739F08A819B81D7
:101E90009093850180938401198289810F900F901E
:101EA0000F90CF91DF9108951F920F920FB60F926E
:101EB00011242F933F934F935F936F937F938F934F
:101EC0009F93AF93BF93EF93FF93DF93CF93CDB7E0
:101ED000DEB78091840190918501009729F0E0910F
:101EE0008401F09185010995CF91DF91FF91EF91E8
:101EF000BF91AF919F918F917F916F915F914F9122
:101F00003F912F910F900FBE0F901F9018951F9229
:101F10000F920FB60F9211242F933F934F935F931D
:101F20006F937F938F939F93AF93BF93EF93FF93A1
:101F3000DF93CF93CDB7DEB7809184019091850177
:101F4000009729F0E0918401F09185010995CF91E6
:101F5000DF91FF91EF91BF91AF919F918F917F9111
:101F60006F915F914F913F912F910F900FBE0F9006
:101F70001F9018951F920F920FB60F9211242F9356
:101F80003F934F935F936F937F938F939F93AF9301
:101F9000BF93EF93FF93DF93CF93CDB7DEB78091DD
:101FA000840190918501009729F0E0918401F091DE
:101FB00085010995CF91DF91FF91EF91BF91AF918D
:101FC0009F918F917F916F915F914F913F912F9151
:101FD0000F900FBE0F901F9018951F920F920FB683
:101FE0000F9211242F933F934F935F936F937F939F
:101FF0008F939F93AF93BF93EF93FF93DF93CF9311
:10200000CDB7DEB78091840190918501009729F0CA
:10201000E0918401F09185010995CF91DF91FF91C5
:10202000EF91BF91AF919F918F917F916F915F9150
:102030004F913F912F910F900FBE0F901F901895C9
:102040000F931F93DF93CF9300D000D000D0CDB774
:10205000DEB78D836E8380E090E0A0E0B0E08983FE
:102060009A83AB83BC8383E00E940B0983E09E01CB
:102070002F5F3F4FB9010E942C0B80E06D810E94C1
:10208000440C8D81882319F50AE410E08E81882F95
:1020900090E0AA2797FDA095BA2FBC01CD010E9420
:1020A0008504DC01CB01BC01CD0124E13EEA43E221
:1020B00051E40E941F02DC01CB01BC01CD010E9452
:1020C0004900DC01CB01F8019183808325C08D811B
:1020D000813011F508E410E08E81882F90E0AA2766
:1020E00097FDA095BA2FBC01CD010E948504DC01AB
:1020F000CB01BC01CD0124E13EEA43E251E40E9460
:102100001F02DC01CB01BC01CD010E944900DC01B2
:10211000CB01F8019183808326960FB6F894DEBF39
:102120000FBECDBFCF91DF911F910F910895DF9327
:10213000CF9300D000D0CDB7DEB78A836B834C83BA
:1021400081E08983AFE5B0E0EFE5F0E08081806871
:102150008C938A818823B1F4A3E5B0E0E3E5F0E055
:102160008081877F8C93A3E5B0E0E3E5F0E0808198
:102170008F7B8C93A9E5B0E0E9E5F0E08081816098
:102180008C9335C08A818130B1F4A3E5B0E0E3E5FA
:10219000F0E0808188608C93A3E5B0E0E3E5F0E0B7
:1021A00080818F7B8C93A9E5B0E0E9E5F0E0808148
:1021B00082608C931CC08A81823079F4A3E5B0E000
:1021C000E3E5F0E08081877F8C93A3E5B0E0E3E571
:1021D000F0E0808180648C930AC08A81833039F476
:1021E000A9E5B0E0E9E5F0E0808182608C938B8125
:1021F0008823B9F4A3E5B0E0E3E5F0E080818E7FC9
:102200008C93A3E5B0E0E3E5F0E080818D7F8C93D3
:10221000A3E5B0E0E3E5F0E080818B7F8C93198249
:10222000F1C08B81813019F5A3E5B0E0E3E5F0E082
:10223000808181608C93A3E5B0E0E3E5F0E08081EC
:102240008D7F8C93A3E5B0E0E3E5F0E080818B7FA8
:102250008C938DEB97E3A6E8B3E380933A069093D3
:102260003B06A0933C06B0933D061982CBC08B8100
:10227000823019F5A3E5B0E0E3E5F0E080818E7FE0
:102280008C93A3E5B0E0E3E5F0E0808182608C937D
:10229000A3E5B0E0E3E5F0E080818B7F8C938DEBEC
:1022A00097E3A6E0B5E380933A0690933B06A093AC
:1022B0003C06B0933D061982A5C08B81833019F589
:1022C000A3E5B0E0E3E5F0E0808181608C93A3E5D5
:1022D000B0E0E3E5F0E0808182608C93A3E5B0E0BC
:1022E000E3E5F0E080818B7F8C938DEB97E3A6E8AC
:1022F000B6E380933A0690933B06A0933C06B093D6
:102300003D0619827FC08B81843019F5A3E5B0E0CA
:10231000E3E5F0E080818E7F8C93A3E5B0E0E3E518
:10232000F0E080818D7F8C93A3E5B0E0E3E5F0E001
:10233000808184608C938DEB97E3A6E8B7E380936C
:102340003A0690933B06A0933C06B0933D06198253
:1023500059C08B81853019F5A3E5B0E0E3E5F0E0E5
:10236000808181608C93A3E5B0E0E3E5F0E08081BB
:102370008D7F8C93A3E5B0E0E3E5F0E0808184609D
:102380008C938DEB97E3A6E8B8E380933A0690939D
:102390003B06A0933C06B0933D06198233C08B8167
:1023A0008630B9F4A3E5B0E0E3E5F0E080818E7F0C
:1023B0008C93A3E5B0E0E3E5F0E0808182608C934C
:1023C000A3E5B0E0E3E5F0E0808184608C931982BE
:1023D00019C08B818730B1F4A3E5B0E0E3E5F0E00C
:1023E000808181608C93A3E5B0E0E3E5F0E080813B
:1023F00082608C93A3E5B0E0E3E5F0E08081846047
:102400008C9319828C81882379F4A3E5B0E0E3E50D
:10241000F0E080818F7E8C93A3E5B0E0E3E5F0E00F
:1024200080818F7D8C9343C08C81813079F4A3E5CA
:10243000B0E0E3E5F0E0808180618C93A3E5B0E05B
:10244000E3E5F0E080818F7D8C9331C08C81823018
:10245000B1F4A3E5B0E0E3E5F0E0808180628C9325
:10246000A3E5B0E0E3E5F0E080818F7E8C93A7E305
:10247000B0E0E7E3F0E0808188608C9318C08C8145
:102480008330A9F4A3E5B0E0E3E5F0E0808180616A
:102490008C93A3E5B0E0E3E5F0E0808180628C936B
:1024A000A7E3B0E0E7E3F0E0808188608C930F90D1
:1024B0000F900F900F90CF91DF910895DF93CF93FE
:1024C0000F92CDB7DEB78983E2E5F0E089818083A2
:1024D0000F90CF91DF910895DF93CF930F92CDB7F7
:1024E000DEB78983ECE5F0E0898180830F90CF919E
:1024F000DF910895DF93CF93CDB7DEB7A9E5B0E0C4
:10250000E9E5F0E0808181608C93CF91DF910895BF
:10251000DF93CF93CDB7DEB7A9E5B0E0E9E5F0E012
:1025200080818E7F8C93CF91DF910895DF93CF933D
:10253000CDB7DEB7A9E5B0E0E9E5F0E080818260E3
:102540008C93CF91DF910895DF93CF93CDB7DEB712
:10255000A9E5B0E0E9E5F0E080818D7F8C93CF9133
:10256000DF910895DF93CF93CDB7DEB728970FB6ED
:10257000F894DEBF0FBECDBF6D837E838F839887B7
:1025800019821A821B821C826D817E818F819885BF
:102590000E943705DC01CB01BC01CD0120E030E019
:1025A0004AE754E40E941903DC01CB0120913A066A
:1025B00030913B0640913C0650913D06BC01CD0157
:1025C0000E941903DC01CB01BC01CD010E9449002E
:1025D000DC01CB0189839A83AB83BC8389819A8197
:1025E000907090938B0180938A0180918A019091E1
:1025F0008B01009799F480918A0190918B010E9440
:102600005E1289819A81AB81BC81892F9A2FAB2F71
:10261000BB2790938D0180938C0119C080918A0112
:1026200090918B01009799F080918A0190918B0194
:102630000E945E1289819A81AB81BC81892F9A2F79
:10264000AB2FBB27019690938D0180938C01289628
:102650000FB6F894DEBF0FBECDBFCF91DF910895C6
:10266000DF93CF93CDB7DEB729970FB6F894DEBFCF
:102670000FBECDBF6E837F838887998781E08D836E
:1026800080E090E0A0E0B0E089839A83AB83BC83D4
:1026900087EC0E946C1280913A0690913B06A091C3
:1026A0003C06B0913D06BC01CD0120E030E048E49D
:1026B00053E40E941F02DC01CB0189839A83AB8320
:1026C000BC836E817F81888599850E943705DC01F6
:1026D000CB01BC01CD0120E030E04AE754E40E9488
:1026E0001903DC01CB01BC01CD0129813A814B8169
:1026F0005C810E941903DC01CB01BC01CD010E9469
:102700004900DC01CB0190938D0180938C011D82E7
:1027100029960FB6F894DEBF0FBECDBFCF91DF91E3
:102720000895DF93CF9300D0CDB7DEB79A83898326
:1027300089819A81009731F089819A8190938901EA
:10274000809388010F900F90CF91DF9108951F9291
:102750000F920FB60F9211242F933F934F935F93D5
:102760006F937F938F939F93AF93BF93EF93FF9359
:10277000DF93CF93CDB7DEB7809188019091890127
:10278000009729F0E0918801F091890109958091E5
:10279000860190918701019690938701809386012D
:1027A000CF91DF91FF91EF91BF91AF919F918F9169
:1027B0007F916F915F914F913F912F910F900FBE3D
:1027C0000F901F9018951F920F920FB60F92112421
:1027D0002F933F934F935F936F937F938F939F9329
:1027E000AF93BF93EF93FF93DF93CF93CDB7DEB754
:1027F0008091880190918901009729F0E0918801EA
:10280000F09189010995CF91DF91FF91EF91BF91EF
:10281000AF919F918F917F916F915F914F913F9178
:102820002F910F900FBE0F901F901895DF93CF93AD
:1028300000D0CDB7DEB789836A838A818F3F09F5DF
:102840008981882329F4EFE5F0E08FEF808357C07A
:102850008981813029F4EBE5F0E08FEF80834FC070
:102860008981823029F4E5E5F0E08FEF808347C06D
:102870008981833009F043C0E4E5F0E08FEF808385
:102880003EC08A818823E1F48981882321F4EFE521
:10289000F0E0108234C08981813021F4EBE5F0E072
:1028A00010822DC08981823021F4E5E5F0E01082AC
:1028B00026C08981833019F5E4E5F0E010821FC05D
:1028C0008981882329F4EFE5F0E08A81808317C0AD
:1028D0008981813029F4EBE5F0E08A8180830FC0A3
:1028E0008981823029F4E5E5F0E08A81808307C0A0
:1028F0008981833021F4E4E5F0E08A8180830F90C0
:102900000F90CF91DF910895DF93CF9300D00F9276
:10291000CDB7DEB789836A834B838B81813009F021
:102920005DC089818823A1F4AFE5B0E0EFE5F0E078
:102930008081482F8A81282F30E081E090E0022EAC
:1029400002C0880F991F0A94E2F7842B8C93A9C0C8
:1029500089818130A1F4ABE5B0E0EBE5F0E0808166
:10296000482F8A81282F30E081E090E0022E02C0BB
:10297000880F991F0A94E2F7842B8C9392C0898167
:102980008230A1F4A5E5B0E0E5E5F0E08081482FD4
:102990008A81282F30E081E090E0022E02C0880F6B
:1029A000991F0A94E2F7842B8C937BC08981833032
:1029B00009F077C0A4E5B0E0E4E5F0E08081482FBD
:1029C0008A81282F30E081E090E0022E02C0880F3B
:1029D000991F0A94E2F7842B8C9363C08B81882320
:1029E00009F05FC089818823A9F4AFE5B0E0EFE585
:1029F000F0E08081482F8A81282F30E081E090E04C
:102A0000022E02C0880F991F0A94E2F78095842352
:102A10008C9347C089818130A9F4ABE5B0E0EBE548
:102A2000F0E08081482F8A81282F30E081E090E01B
:102A3000022E02C0880F991F0A94E2F78095842322
:102A40008C932FC089818230A9F4A5E5B0E0E5E53B
:102A5000F0E08081482F8A81282F30E081E090E0EB
:102A6000022E02C0880F991F0A94E2F780958423F2
:102A70008C9317C089818330A1F4A4E5B0E0E4E52C
:102A8000F0E08081482F8A81282F30E081E090E0BB
:102A9000022E02C0880F991F0A94E2F780958423C2
:102AA0008C930F900F900F90CF91DF910895DF934B
:102AB000CF9300D0CDB7DEB79A83898389819A817D
:102AC000009731F089819A8190938F0180938E01D4
:102AD0000F900F90CF91DF910895DF93CF9300D0A7
:102AE000CDB7DEB79A83898389819A81009731F0C7
:102AF00089819A8190939101809390010F900F901A
:102B0000CF91DF910895DF93CF9300D0CDB7DEB79B
:102B10009A83898389819A81009731F089819A818A
:102B200090939301809392010F900F90CF91DF913A
:102B30000895DF93CF930F92CDB7DEB78983898154
:102B4000813031F480E067E041E00E94841408C0E5
:102B50008981882329F480E067E040E00E948414A2
:102B60000F90CF91DF910895DF93CF93CDB7DEB76C
:102B700081E066E041E00E94841482E060E041E090
:102B80000E94841482E061E041E00E948414CF91AD
:102B9000DF910895DF93CF93CDB7DEB781E066E094
:102BA00041E00E94841482E060E040E00E948414CE
:102BB00082E061E041E00E948414CF91DF910895AA
:102BC0001F920F920FB60F9211242F933F934F93A2
:102BD0005F936F937F938F939F93AF93BF93EF9385
:102BE000FF93DF93CF93CDB7DEB780918E019091A5
:102BF0008F01009729F0E0918E01F0918F010995E6
:102C0000CF91DF91FF91EF91BF91AF919F918F9104
:102C10007F916F915F914F913F912F910F900FBED8
:102C20000F901F9018951F920F920FB60F921124BC
:102C30002F933F934F935F936F937F938F939F93C4
:102C4000AF93BF93EF93FF93DF93CF93CDB7DEB7EF
:102C50008091900190919101009729F0E09190016D
:102C6000F09191010995CF91DF91FF91EF91BF9183
:102C7000AF919F918F917F916F915F914F913F9114
:102C80002F910F900FBE0F901F9018951F920F92CB
:102C90000FB60F9211242F933F934F935F936F932F
:102CA0007F938F939F93AF93BF93EF93FF93DF93A4
:102CB000CF93CDB7DEB780919201909193010097A9
:102CC00029F0E0919201F09193010995CF91DF9164
:102CD000FF91EF91BF91AF919F918F917F916F91F4
:102CE0005F914F913F912F910F900FBE0F901F90CA
:102CF0001895DF93CF9300D00F92CDB7DEB78A83BC
:102D00006B8381E089838A81843008F06EC08B8177
:102D10008F3F29F58A81882331F4EAE3F0E08FEFD1
:102D20008083198262C08A81813031F4E7E3F0E068
:102D30008FEF8083198259C08A81823031F4E4E3B5
:102D4000F0E08FEF8083198250C08A81833009F0D0
:102D50004CC0E1E3F0E08FEF8083198246C08B81A5
:102D6000882301F58A81882329F4EAE3F0E01082C0
:102D700019823BC08A81813029F4E7E3F0E01082B8
:102D8000198233C08A81823029F4E4E3F0E01082B2
:102D900019822BC08A81833041F5E1E3F0E0108293
:102DA000198223C08A81882331F4EAE3F0E08B8121
:102DB000808319821AC08A81813031F4E7E3F0E020
:102DC0008B818083198211C08A81823031F4E4E3DF
:102DD000F0E08B818083198208C08A81833029F4D6
:102DE000E1E3F0E08B818083198289810F900F905D
:102DF0000F90CF91DF910895DF93CF9300D000D053
:102E0000CDB7DEB78A836B834C8381E089838A8167
:102E1000843008F0D4C08B81883008F0D0C08C8119
:102E2000823008F0CCC08C81813009F061C08A8189
:102E30008823A9F4AAE3B0E0EAE3F0E08081482F18
:102E40008B81282F30E081E090E0022E02C0880FB5
:102E5000991F0A94E2F7842B8C931982B0C08A815F
:102E60008130A9F4A7E3B0E0E7E3F0E08081482FE8
:102E70008B81282F30E081E090E0022E02C0880F85
:102E8000991F0A94E2F7842B8C93198298C08A8147
:102E90008230A9F4A4E3B0E0E4E3F0E08081482FBD
:102EA0008B81282F30E081E090E0022E02C0880F55
:102EB000991F0A94E2F7842B8C93198280C08A812F
:102EC000833009F07CC0A1E3B0E0E1E3F0E0808171
:102ED000482F8B81282F30E081E090E0022E02C045
:102EE000880F991F0A94E2F7842B8C93198267C08C
:102EF0008C81882309F063C08A818823B1F4AAE316
:102F0000B0E0EAE3F0E08081482F8B81282F30E0A9
:102F100081E090E0022E02C0880F991F0A94E2F728
:102F2000809584238C9319824AC08A818130B1F4C0
:102F3000A7E3B0E0E7E3F0E08081482F8B81282F02
:102F400030E081E090E0022E02C0880F991F0A94C1
:102F5000E2F7809584238C93198231C08A81823074
:102F6000B1F4A4E3B0E0E4E3F0E08081482F8B818A
:102F7000282F30E081E090E0022E02C0880F991FD8
:102F80000A94E2F7809584238C93198218C08A8171
:102F90008330A9F4A1E3B0E0E1E3F0E08081482FC1
:102FA0008B81282F30E081E090E0022E02C0880F54
:102FB000991F0A94E2F7809584238C931982898162
:102FC0000F900F900F900F90CF91DF910895DF93A6
:102FD000CF9300D00F92CDB7DEB78A836B8381E0A9
:102FE00089838A81843008F06EC08B818F3F29F5F8
:102FF0008A81882331F4EBE3F0E08FEF808319823C
:1030000062C08A81813031F4E8E3F0E08FEF8083A1
:10301000198259C08A81823031F4E5E3F0E08FEF04
:103020008083198250C08A81833009F04CC0E2E36A
:10303000F0E08FEF8083198246C08B81882301F5F1
:103040008A81882329F4EBE3F0E0108219823BC0E7
:103050008A81813029F4E8E3F0E01082198233C0DC
:103060008A81823029F4E5E3F0E0108219822BC0D6
:103070008A81833041F5E2E3F0E01082198223C0B7
:103080008A81882331F4EBE3F0E08B81808319821D
:103090001AC08A81813031F4E8E3F0E08B818083CB
:1030A000198211C08A81823031F4E5E3F0E08B812E
:1030B0008083198208C08A81833029F4E2E3F0E03A
:1030C0008B818083198289810F900F900F90CF910F
:1030D000DF910895DF93CF9300D000D0CDB7DEB756
:1030E0008A836B834C8381E089838A81843008F0F2
:1030F000D4C08B81883008F0D0C08C81823008F039
:10310000CCC08C81813009F061C08A818823A9F408
:10311000ABE3B0E0EBE3F0E08081482F8B81282F18
:1031200030E081E090E0022E02C0880F991F0A94DF
:10313000E2F7842B8C931982B0C08A818130A9F484
:10314000A8E3B0E0E8E3F0E08081482F8B81282FEE
:1031500030E081E090E0022E02C0880F991F0A94AF
:10316000E2F7842B8C93198298C08A818230A9F46B
:10317000A5E3B0E0E5E3F0E08081482F8B81282FC4
:1031800030E081E090E0022E02C0880F991F0A947F
:10319000E2F7842B8C93198280C08A81833009F0F6
:1031A0007CC0A2E3B0E0E2E3F0E08081482F8B81B5
:1031B000282F30E081E090E0022E02C0880F991F96
:1031C0000A94E2F7842B8C93198267C08C81882340
:1031D00009F063C08A818823B1F4ABE3B0E0EBE38C
:1031E000F0E08081482F8B81282F30E081E090E053
:1031F000022E02C0880F991F0A94E2F7809584235B
:103200008C9319824AC08A818130B1F4A8E3B0E07E
:10321000E8E3F0E08081482F8B81282F30E081E0C7
:1032200090E0022E02C0880F991F0A94E2F7809561
:1032300084238C93198231C08A818230B1F4A5E352
:10324000B0E0E5E3F0E08081482F8B81282F30E06B
:1032500081E090E0022E02C0880F991F0A94E2F7E5
:10326000809584238C93198218C08A818330A9F4B5
:10327000A2E3B0E0E2E3F0E08081482F8B81282FC9
:1032800030E081E090E0022E02C0880F991F0A947E
:10329000E2F7809584238C93198289810F900F9097
:1032A0000F900F90CF91DF910895DF93CF9300D0CF
:1032B00000D0CDB7DEB78A837C836B8381E08983BE
:1032C0008A81843058F58A81882341F4EBE3F0E069
:1032D0008081EB81FC818083198220C08A818130CA
:1032E00041F4E8E3F0E08081EB81FC818083198286
:1032F00015C08A81823041F4E5E3F0E08081EB8102
:10330000FC81808319820AC08A81833039F4E2E328
:10331000F0E08081EB81FC818083198289810F90AC
:103320000F900F900F90CF91DF910895DF93CF937F
:1033300000D000D00F92CDB7DEB78A836B835D8358
:103340004C8381E089838A81843008F063C08B815B
:10335000883008F05FC08A818823A9F4E9E3F0E0AF
:103360008081282F30E08B81882F90E0A90102C056
:10337000559547958A95E2F7CA018170EC81FD81E8
:103380008083198247C08A818130A9F4E6E3F0E0A6
:103390008081282F30E08B81882F90E0A90102C026
:1033A000559547958A95E2F7CA018170EC81FD81B8
:1033B000808319822FC08A818230A9F4E3E3F0E090
:1033C0008081282F30E08B81882F90E0A90102C0F6
:1033D000559547958A95E2F7CA018170EC81FD8188
:1033E0008083198217C08A818330A1F4E0E3F0E082
:1033F0008081282F30E08B81882F90E0A90102C0C6
:10340000559547958A95E2F7CA018170EC81FD8157
:103410008083198289810F900F900F900F900F90E9
:10342000CF91DF910895DF93CF9300D0CDB7DEB772
:103430008A8381E089838A81843078F58A81882330
:1034400049F4ABE3B0E0EBE3F0E0808180958C934E
:10345000198223C08A81813049F4A8E3B0E0E8E30F
:10346000F0E0808180958C93198217C08A81823028
:1034700049F4A5E3B0E0E5E3F0E0808180958C932A
:1034800019820BC08A81833041F4A2E3B0E0E2E309
:10349000F0E0808180958C93198289810F900F9044
:1034A000CF91DF910895DF93CF9300D00F92CDB7E6
:1034B000DEB78A836B8381E089838A81843008F058
:1034C00063C08B81883008F05FC08A818823A9F4AB
:1034D000ABE3B0E0EBE3F0E08081482F8B81282F55
:1034E00030E081E090E0022E02C0880F991F0A941C
:1034F000E2F784278C93198247C08A818130A9F42E
:10350000A8E3B0E0E8E3F0E08081482F8B81282F2A
:1035100030E081E090E0022E02C0880F991F0A94EB
:10352000E2F784278C9319822FC08A818230A9F414
:10353000A5E3B0E0E5E3F0E08081482F8B81282F00
:1035400030E081E090E0022E02C0880F991F0A94BB
:10355000E2F784278C93198217C08A818330A1F403
:10356000A2E3B0E0E2E3F0E08081482F8B81282FD6
:1035700030E081E090E0022E02C0880F991F0A948B
:10358000E2F784278C93198289810F900F900F9016
:10359000CF91DF910895DF93CF93CDB7DEB783E06E
:1035A00062E040E00E94FC1683E066E041E00E9499
:1035B000FC1689E69CE10E945715AFE5B0E0EFE507
:1035C000F0E0808180688C9380E063E040E00E94BE
:1035D000971081E70E945E12CF91DF910895DF93EB
:1035E000CF93CDB7DEB768970FB6F894DEBF0FBEA6
:1035F000CDBF83E066E041E00E946A1880E090E081
:10360000A0E2B1E48D8B9E8BAF8BB88F6D897E89E4
:103610008F89988D2BEA3AEA4AEA50E40E941F0209
:10362000DC01CB01898B9A8BAB8BBC8B69897A8946
:103630008B899C8920E030E040E85FE30E9425040C
:1036400088231CF481E0888B91C069897A898B89F1
:103650009C8920E030E04FE753E40E94C503181630
:103660000CF07BC06D897E898F89988D20E030E0D9
:103670004AE754E40E941903DC01CB018C879D8743
:10368000AE87BF876C857D858E859F8520E030E085
:103690004AE755E40E941F02DC01CB018887998725
:1036A000AA87BB87688579858A859B8520E030E07D
:1036B00040E85FE30E94250488232CF481E090E039
:1036C0009F838E833FC0688579858A859B8520E0AE
:1036D0003FEF4FE757E40E94C50318164CF56C8581
:1036E0007D858E859F8520E030E040E251E40E9498
:1036F0001F02DC01CB01BC01CD010E944900DC01AD
:10370000CB019F838E830FC080E991E09D838C83E2
:103710008C819D810197F1F79D838C838E819F81A0
:1037200001979F838E838E819F81009769F724C0C4
:10373000688579858A859B850E944900DC01CB01DB
:103740009F838E838E819F819B838A838A819B81C5
:103750000197F1F79B838A830FC069897A898B89E6
:103760009C890E944900DC01CB01888B8889898370
:1037700089818A95F1F7898383E066E040E00E94C1
:103780006A1868960FB6F894DEBF0FBECDBFCF9112
:10379000DF910895DF93CF93CDB7DEB760970FB673
:1037A000F894DEBF0FBECDBF988B8F870E94EF1AB3
:1037B0000E94B41580E090E0A8E4B2E48B879C8777
:1037C000AD87BE876B857C858D859E8520E030E04A
:1037D0004AE755E40E941F02DC01CB018F839887E2
:1037E000A987BA876F81788589859A8520E030E03E
:1037F00040E85FE30E94250488232CF481E090E0F8
:103800009E838D833FC06F81788589859A8520E06E
:103810003FEF4FE757E40E94C50318164CF56B8540
:103820007C858D859E8520E030E040E251E40E9459
:103830001F02DC01CB01BC01CD010E944900DC016B
:10384000CB019E838D830FC080E991E09C838B83A5
:103850008B819C810197F1F79C838B838D819E8165
:1038600001979E838D838D819E81009769F714C097
:103870006F81788589859A850E944900DC01CB019A
:103880009E838D838D819E819A83898389819A818C
:103890000197F1F79A8389832091940130919501E2
:1038A0004091960150919701CA01B9010E94F2011D
:1038B000DC01CB01EF85F88980839183A283B383F8
:1038C00060960FB6F894DEBF0FBECDBFCF91DF91EB
:1038D0000895DF93CF93CDB7DEB780916D0183302C
:1038E00008F075C080916D018130A1F4E2E5F0E04F
:1038F0008081882F90E09093990180939801809126
:1039000086019091870190934106809340060E9422
:10391000CA1558C080916D01823009F053C0E2E5AC
:10392000F0E08081882F90E090939B0180939A0132
:10393000809186019091870190933F0680933E0687
:1039400080913E0690913F06382F222780919A0160
:1039500090919B01A901480F591F809140069091B9
:103960004106382F22278091980190919901820F6A
:10397000931F9A01281B390BC90190939D018093D5
:103980009C0180919C0190919D01CC01A0E0B0E050
:10399000BC01CD010E943705DC01CB01BC01CD018A
:1039A00026E933E44BE85DE30E941F02DC01CB0112
:1039B0008093940190939501A0939601B093970101
:1039C00010926D0180916D018F5F80936D01CF9199
:1039D000DF910895DF93CF93CDB7DEB7A1E3B0E0D9
:1039E000E1E3F0E0808180688C93CF91DF910895CE
:1039F000DF93CF93CDB7DEB7E5970FB6F894DEBF70
:103A00000FBECDBF8DAB8DA9882F90E08A55904019
:103A1000AA2797FDA095BA2FBC01CD010E9485046D
:103A2000DC01CB01BC01CD012BEA3AEA4AE251E4C8
:103A30000E941F02DC01CB01BC01CD0120E030E877
:103A400049E854E40E94F201DC01CB01BC01CD0144
:103A50000E944900DC01CB019CAB8BAB20E23EE431
:103A60008BA99CA9A901481B590BCA019AAB89AB28
:103A70008DA9882F90E0AA2797FDA095BA2FBC01A9
:103A8000CD010E948504DC01CB01BC01CD0120E009
:103A900030E044E353E40E94550418160CF498C136
:103AA000A2E3B0E0E2E3F0E0808180688C938BA930
:103AB0009CA9CC01A0E0B0E0BC01CD010E9437057B
:103AC000DC01CB018DA79EA7AFA7B8AB6DA57EA5E6
:103AD0008FA598A92BEA3AEA4AEA50E40E941F020D
:103AE000DC01CB0189A79AA7ABA7BCA769A57AA5DA
:103AF0008BA59CA520E030E040E85FE30E94250410
:103B000088231CF481E088A791C069A57AA58BA5BC
:103B10009CA520E030E04FE753E40E94C50318164F
:103B20000CF07BC06DA57EA58FA598A920E030E0A4
:103B30004AE754E40E941903DC01CB018CA39DA346
:103B4000AEA3BFA36CA17DA18EA19FA120E030E018
:103B50004AE755E40E941F02DC01CB0188A399A328
:103B6000AAA3BBA368A179A18AA19BA120E030E010
:103B700040E85FE30E94250488232CF481E090E074
:103B80009F8F8E8F3FC068A179A18AA19BA120E061
:103B90003FEF4FE757E40E94C50318164CF56CA1A0
:103BA0007DA18EA19FA120E030E040E251E40E947F
:103BB0001F02DC01CB01BC01CD010E944900DC01E8
:103BC000CB019F8F8E8F0FC080E991E09D8F8C8FEE
:103BD0008C8D9D8D0197F1F79D8F8C8F8E8D9F8D94
:103BE00001979F8F8E8F8E8D9F8D009769F724C0D0
:103BF00068A179A18AA19BA10E944900DC01CB01A7
:103C00009F8F8E8F8E8D9F8D9B8F8A8F8A8D9B8DA0
:103C10000197F1F79B8F8A8F0FC069A57AA58BA5B5
:103C20009CA50E944900DC01CB0188A788A5898F4B
:103C3000898D8A95F1F7898FA2E3B0E0E2E3F0E0A5
:103C400080818F778C9389A99AA9CC01A0E0B0E0FC
:103C5000BC01CD010E943705DC01CB018D8B9E8B11
:103C6000AF8BB88F6D897E898F89988D2BEA3AEA60
:103C70004AEA50E40E941F02DC01CB01898B9A8B37
:103C8000AB8BBC8B69897A898B899C8920E030E079
:103C900040E85FE30E94250488231CF481E0888BC0
:103CA00091C069897A898B899C8920E030E04FE74F
:103CB00053E40E94C50318160CF07BC06D897E8901
:103CC0008F89988D20E030E04AE754E40E94190380
:103CD000DC01CB018C879D87AE87BF876C857D8596
:103CE0008E859F8520E030E04AE755E40E941F0260
:103CF000DC01CB0188879987AA87BB87688579858E
:103D00008A859B8520E030E040E85FE30E9425043F
:103D100088232CF481E090E09F838E833FC06885E8
:103D200079858A859B8520E03FEF4FE757E40E9425
:103D3000C50318164CF56C857D858E859F8520E022
:103D400030E040E251E40E941F02DC01CB01BC01E3
:103D5000CD010E944900DC01CB019F838E830FC0FF
:103D600080E991E09D838C838C819D810197F1F79F
:103D70009D838C838E819F8101979F838E838E810B
:103D80009F81009769F724C0688579858A859B851E
:103D90000E944900DC01CB019F838E838E819F812D
:103DA0009B838A838A819B810197F1F79B838A8316
:103DB0000FC069897A898B899C890E944900DC013E
:103DC000CB01888B8889898389818A95F1F78983DA
:103DD000E5960FB6F894DEBF0FBECDBFCF91DF9151
:103DE0000895DF93CF9300D00F92CDB7DEB78A83CB
:103DF0006B8381E089838A81843048F48B818830A9
:103E000030F48A816B8141E00E94FC1689838981AC
:103E10000F900F900F90CF91DF910895DF93CF9384
:103E200000D000D0CDB7DEB78A836B834C8381E0AE
:103E300089838A81843010F58B818830F8F48C81F5
:103E40008330E0F48C81813039F48A816B8141E0E8
:103E50000E946A18898312C08C81882339F48A8170
:103E60006B8140E00E946A18898308C08C8182308F
:103E700029F48A816B810E94531A898389810F906A
:103E80000F900F900F90CF91DF910895DF93CF9314
:103E9000CDB7DEB783E064E041E00E94FC1683E02A
:103EA00065E041E00E94FC1682E063E041E00E9490
:103EB000FC1682E064E041E00E94FC1682E065E0CE
:103EC00041E00E94FC1682E066E041E00E94FC16A0
:103ED000CF91DF910895DF93CF930F92CDB7DEB7E7
:103EE000898381E069810E94201080E069810E94BD
:103EF000201082E063E040E00E946A1882E064E003
:103F000040E00E946A1882E065E040E00E946A1882
:103F100082E066E041E00E946A180F90CF91DF9145
:103F20000895DF93CF93CDB7DEB781E066E40E94BA
:103F3000201080E063E60E94201082E063E041E010
:103F40000E946A1882E064E040E00E946A1882E001
:103F500065E040E00E946A1882E066E041E00E946D
:103F60006A18CF91DF910895DF93CF930F92CDB769
:103F7000DEB7898380E069810E94201081E0698139
:103F80000E94201082E063E041E00E946A1882E013
:103F900064E040E00E946A1882E065E040E00E9430
:103FA0006A1882E066E041E00E946A180F90CF91A3
:103FB000DF910895DF93CF930F92CDB7DEB789835A
:103FC00081E069810E94201080E069810E942010B8
:103FD00082E063E040E00E946A1882E064E041E031
:103FE0000E946A1882E065E041E00E946A1882E05F
:103FF00066E040E00E946A180F90CF91DF9108952B
:10400000DF93CF930F92CDB7DEB7898381E06981CB
:104010000E94201080E069810E94201082E063E00D
:1040200041E00E946A1882E064E040E00E946A1861
:1040300082E065E040E00E946A1882E066E040E0CD
:104040000E946A180F90CF91DF910895DF93CF936C
:104050000F92CDB7DEB7898381E069810E9420107D
:1040600080E069810E94201082E063E040E00E94CD
:104070006A1882E064E040E00E946A1882E065E02D
:1040800040E00E946A1882E066E040E00E946A1800
:104090000F90CF91DF910895DF93CF9300D00F92CF
:1040A000CDB7DEB78A836B8381E089838A818430D0
:1040B00048F48B81883030F48A816B8141E00E9422
:1040C000FC16898389810F900F900F90CF91DF911B
:1040D0000895DF93CF9300D000D0CDB7DEB78A83A9
:1040E0006B834C8381E089838A81843010F58B81D6
:1040F0008830F8F48C818330E0F48C81813039F49D
:104100008A816B8141E00E946A18898312C08C8188
:10411000882339F48A816B8140E00E946A18898380
:1041200008C08C81823029F48A816B810E94531AE5
:10413000898389810F900F900F900F90CF91DF911D
:104140000895DF93CF93CDB7DEB72E970FB6F894CF
:10415000DEBF0FBECDBF9E878D871E821D820E944F
:10416000652B80919E01882329F40E94082281E01A
:1041700080939E018D859E85009751F080918101ED
:10418000909182012D853E85820F931F9E878D879A
:104190008D859E85009709F4AFC08D859E8523E0AF
:1041A000873E920708F0A8C087E895E09A8789873C
:1041B00080918705909188059C878B870AC08B85A5
:1041C0009C859A878987EB85FC85808191819C8776
:1041D0008B87EB85FC85228133818D859E85281711
:1041E000390730F4EB85FC8580819181009739F7A0
:1041F0008B859C8545E08B38940709F47DC0E98563
:10420000FA85208131818091810190918201820F14
:10421000931F9E838D83EB85FC8580819181E98549
:10422000FA8591838083EB85FC85228133818D859E
:104230009E85281B390B8091810190918201880F06
:10424000991F8217930708F047C02B853C858D8501
:104250009E85820F931F98878F83EB85FC85228133
:1042600033818D859E85A901481B590BCA01EF81B9
:10427000F88593838283EB85FC858D859E8593836A
:104280008283EF81F885828193819A83898387E88D
:1042900095E09C838B8306C0EB81FC8180819181BA
:1042A0009C838B83EB81FC810190F081E02D228146
:1042B000338189819A812817390770F3EB81FC815A
:1042C00080819181EF81F88591838083EB81FC81EE
:1042D0008F8198859183808320916E0130916F0149
:1042E000EB85FC8582819381A901481B590BCA018A
:1042F00090936F0180936E010E94712B8D819E813E
:104300002E960FB6F894DEBF0FBECDBFCF91DF91D2
:104310000895DF93CF93CDB7DEB72A970FB6F89401
:10432000DEBF0FBECDBF9A87898789859A8598871A
:104330008F8389859A85009709F44FC08091810108
:104340009091820122273327281B390B8F81988572
:10435000820F931F98878F838F8198859E838D838B
:104360000E94652BED81FE81828193819A838983EE
:1043700087E895E09C838B8306C0EB81FC8180817C
:1043800091819C838B83EB81FC810190F081E02DF6
:104390002281338189819A812817390770F3EB8153
:1043A000FC8180819181ED81FE8191838083EB810D
:1043B000FC818D819E8191838083ED81FE812281AC
:1043C000338180916E0190916F01820F931F9093C2
:1043D0006F0180936E010E94712B2A960FB6F8949C
:1043E000DEBF0FBECDBFCF91DF910895DF93CF9396
:1043F000CDB7DEB780916E0190916F01CF91DF91C3
:104400000895DF93CF93CDB7DEB7CF91DF910895B5
:10441000DF93CF9300D000D0CDB7DEB780EA91E034
:104420009A83898389819A819093880580938705EF
:1044300010928A051092890587EE93E090938E057D
:1044400080938D0510928C0510928B0589819A813D
:104450009C838B83EB81FC8187EE93E09383828343
:10446000EB81FC818BE895E0918380830F900F9026
:104470000F900F90CF91DF910895DF93CF9300D0ED
:10448000CDB7DEB79A83898389819A810396E981C2
:10449000FA8192838183E981FA818FEF9FEF948380
:1044A000838389819A810396E981FA819683858342
:1044B00089819A810396E981FA8190878783E981CE
:1044C000FA8110820F900F90CF91DF910895DF93C2
:1044D000CF9300D0CDB7DEB79A838983E981FA8183
:1044E000118610860F900F90CF91DF910895DF9382
:1044F000CF9300D000D000D0CDB7DEB79C838B83A4
:104500007E836D83EB81FC81818192819A83898393
:10451000ED81FE8189819A8193838283E981FA8189
:1045200084819581ED81FE8195838483E981FA817F
:104530000480F581E02D8D819E8193838283E981C2
:10454000FA818D819E8195838483ED81FE818B81AB
:104550009C8191878087EB81FC8180818F5FEB81DB
:10456000FC81808326960FB6F894DEBF0FBECDBFC8
:10457000CF91DF910895DF93CF93CDB7DEB7289722
:104580000FB6F894DEBF0FBECDBF9E838D837887B4
:104590006F83EF81F885808191819A8389838981F6
:1045A0009A812FEF8F3F920739F4ED81FE81878149
:1045B00090859C838B8318C08D819E8103969C83FC
:1045C0008B8306C0EB81FC81828193819C838B83EA
:1045D000EB81FC810280F381E02D20813181898192
:1045E0009A818217930770F7EB81FC818281938116
:1045F000EF81F88593838283EF81F8850280F381D0
:10460000E02D8F81988595838483EF81F8858B8158
:104610009C8195838483EB81FC818F819885938332
:104620008283EF81F8858D819E8191878087ED81DE
:10463000FE8180818F5FED81FE81808328960FB699
:10464000F894DEBF0FBECDBFCF91DF910895DF9309
:10465000CF9300D000D0CDB7DEB79C838B83EB81A6
:10466000FC81808591859A838983EB81FC81A2817D
:10467000B381EB81FC818481958115969C938E9307
:104680001497EB81FC81A481B581EB81FC8182814F
:10469000938113969C938E931297E981FA812181DD
:1046A00032818B819C812817390741F4EB81FC8191
:1046B00084819581E981FA8192838183EB81FC81F8
:1046C00011861086E981FA8180818150E981FA8121
:1046D0008083E981FA8180810F900F900F900F9075
:1046E000CF91DF910895DF93CF93CDB7DEB72897B1
:1046F0000FB6F894DEBF0FBECDBF9C838B837E8345
:104700006D8358874F83EB81FC8181E180838B81AE
:104710009C8101979C838B83EB81FC8182E2808367
:104720008B819C8101979C838B83EB81FC8183E34C
:1047300080838B819C8101979C838B838D819E815B
:104740009A8389838981EB81FC8180838B819C8121
:1047500001979C838B8389819A81892F99279A83DA
:1047600089838981EB81FC8180838B819C81019786
:104770009C838B83EB81FC8110828B819C810197D0
:104780009C838B83EB81FC8180E880838B819C817F
:1047900001979C838B83EB81FC8110828B819C81B0
:1047A00001979C838B83EB81FC8182E080838B81EA
:1047B0009C8101979C838B83EB81FC8183E08083C8
:1047C0008B819C8101979C838B83EB81FC8184E0AE
:1047D00080838B819C8101979C838B83EB81FC81FF
:1047E00085E080838B819C8101979C838B83EB8107
:1047F000FC8186E080838B819C8101979C838B83E5
:10480000EB81FC8187E080838B819C8101979C8375
:104810008B83EB81FC8188E080838B819C81019775
:104820009C838B83EB81FC8189E080838B819C81DD
:1048300001979C838B83EB81FC8180E180838B815A
:104840009C8101979C838B83EB81FC8181E1808338
:104850008B819C8101979C838B83EB81FC8182E11E
:1048600080838B819C8101979C838B83EB81FC816E
:1048700083E180838B819C8101979C838B83EB8177
:10488000FC8184E180838B819C8101979C838B8355
:10489000EB81FC8185E180838B819C8101979C83E6
:1048A0008B83EB81FC8186E180838B819C810197E6
:1048B0009C838B83EB81FC8187E180838B819C814E
:1048C00001979C838B83EB81FC8188E180838B81C2
:1048D0009C8101979C838B83EB81FC8189E18083A0
:1048E0008B819C8101979C838B83EB81FC8180E28F
:1048F00080838B819C8101979C838B83EB81FC81DE
:1049000081E280838B819C8101979C838B83EB81E7
:10491000FC8182E280838B819C8101979C838B83C5
:10492000EB81FC8183E280838B819C8101979C8356
:104930008B838F8198859A8389838981EB81FC8120
:1049400080838B819C8101979C838B8389819A8151
:10495000892F99279A8389838981EB81FC818083C0
:104960008B819C8101979C838B83EB81FC8186E208
:1049700080838B819C8101979C838B83EB81FC815D
:1049800087E280838B819C8101979C838B83EB8161
:10499000FC8188E280838B819C8101979C838B833F
:1049A000EB81FC8189E280838B819C8101979C83D0
:1049B0008B83EB81FC8180E380838B819C810197D9
:1049C0009C838B83EB81FC8181E380838B819C8141
:1049D00001979C838B838B819C8128960FB6F894DA
:1049E000DEBF0FBECDBFCF91DF910895DF93CF9390
:1049F000CDB7DEB70E94E825A0918F05B091900554
:104A0000CD91CDBFDD91DEBFFF91EF91DF91CF91D1
:104A1000BF91AF919F918F917F916F915F914F91D6
:104A20003F912F911F910F91FF90EF90DF90CF90CA
:104A3000BF90AF909F908F907F906F905F904F90BE
:104A40003F902F901F900F900FBE0F90089581E020
:104A5000CF91DF910895DF93CF93CDB7DEB7CF919C
:104A6000DF9108950F920FB6F8940F921F921124C0
:104A70002F923F924F925F926F927F928F929F926E
:104A8000AF92BF92CF92DF92EF92FF920F931F935C
:104A90002F933F934F935F936F937F938F939F9346
:104AA000AF93BF93CF93DF93EF93FF93A0918F05C5
:104AB000B09190050DB60D920EB60D920E942D2D5F
:104AC000A0918F05B0919005CD91CDBFDD91DEBF56
:104AD000FF91EF91DF91CF91BF91AF919F918F9116
:104AE0007F916F915F914F913F912F911F910F9106
:104AF000FF90EF90DF90CF90BF90AF909F908F90FE
:104B00007F906F905F904F903F902F901F900F90ED
:104B10000FBE0F9008950F920FB6F8940F921F9248
:104B200011242F923F924F925F926F927F928F92B9
:104B30009F92AF92BF92CF92DF92EF92FF920F932C
:104B40001F932F933F934F935F936F937F938F9315
:104B50009F93AF93BF93CF93DF93EF93FF93A09176
:104B60008F05B09190050DB60D920EB60D920E9474
:104B7000612C882311F00E942D2DA0918F05B091FA
:104B80009005CD91CDBFDD91DEBFFF91EF91DF911B
:104B9000CF91BF91AF919F918F917F916F915F91D5
:104BA0004F913F912F911F910F91FF90EF90DF90C8
:104BB000CF90BF90AF909F908F907F906F905F90BD
:104BC0004F903F902F901F900F900FBE0F90089521
:104BD000DF93CF9300D000D000D0CDB7DEB780E810
:104BE0009EE3A0E0B0E08B839C83AD83BE838B818A
:104BF0009C81AD81BE81689415F8B695A79597956F
:104C000087951694D1F78B839C83AD83BE838B816C
:104C10009C81AD81BE810197A109B1098B839C83E1
:104C2000AD83BE838B8189838B819C81AD81BE8165
:104C3000892F9A2FAB2FBB278B839C83AD83BE8399
:104C40008B818A83EBE4F0E08A818083EAE4F0E000
:104C5000898180838BE08983EEE4F0E08981808321
:104C6000E9E5F0E080818983898180618983E9E5D4
:104C7000F0E08981808326960FB6F894DEBF0FBEE0
:104C8000CDBFCF91DF9108950E948B2518958F920B
:104C90009F92AF92BF92CF92DF92EF92FF920F93CB
:104CA0001F93DF93CF93CDB7DEB760970FB6F8941D
:104CB000DEBF0FBECDBF9F838E83798768875B87FA
:104CC0004A873D872C870E87F88AEF868A859B85E1
:104CD0000E94A1209A83898389819A810097B1F0EB
:104CE00088E290E00E94A1209D838C838C819D812D
:104CF000009739F0EC81FD8189819A81908F878BB3
:104D000007C089819A810E94892102C01D821C826C
:104D10008C819D810097E9F08A859B859C0140E00C
:104D200050E08E819F8168857985EC85FD85AF8512
:104D3000B889AC80BD808F01EE846D0188249924F0
:104D40000E94BF268C819D810E947A2781E08B83FF
:104D500002C08FEF8B838B8160960FB6F894DEBF15
:104D60000FBECDBFCF91DF911F910F91FF90EF90BC
:104D7000DF90CF90BF90AF909F908F9008958F92CB
:104D80009F92AF92BF92CF92DF92EF920F931F93B9
:104D9000DF93CF93CDB7DEB764970FB6F894DEBF3D
:104DA0000FBECDBF9D838C837F836E832887398719
:104DB0004A875B871D870C87EE86D88ACF86BA8A9A
:104DC000A98A9C8A8B8AE989FA892789308D888506
:104DD00099850197820F931F9B838A83198221C033
:104DE0008981482F50E08981282F30E08E819F8172
:104DF000FC01E20FF31F208189899A89840F951F96
:104E0000FC01799620838981282F30E08E819F8153
:104E1000FC01E20FF31F8081882331F089818F5FCD
:104E2000898389818830E0F2E989FA8910A28E8528
:104E3000893010F088E08E87E989FA898E85868B23
:104E4000E989FA898E8581A3E989FA8912A289897B
:104E50009A8902960E94672289899A890C960E94F3
:104E60006722E989FA8989899A89918780878E855D
:104E7000282F30E089E090E0821B930BE989FA89C2
:104E800095878487E989FA8989899A89938B828BA6
:104E9000E989FA8913A214A215A216A2E989FA894E
:104EA00017A28A819B812C813D814C855D85B9014A
:104EB0000E947323E989FA89918380838F85988979
:104EC000009731F0EF85F88989899A8991838083E9
:104ED00064960FB6F894DEBF0FBECDBFCF91DF91C1
:104EE0001F910F91EF90DF90CF90BF90AF909F9068
:104EF0008F900895DF93CF9300D0CDB7DEB79A831C
:104F000089830FB6F8940F92809192058F5F8093FA
:104F1000920580918F0590919005009769F48981A1
:104F20009A819093900580938F05809192058130AE
:104F3000B9F40E94562F14C080919605882381F4FD
:104F4000E0918F05F09190059689E981FA81868933
:104F5000891730F089819A819093900580938F050D
:104F600080919A058F5F80939A05E981FA819689ED
:104F700080919505891728F4E981FA8186898093C3
:104F80009505E981FA818689282F30E0C901880FCB
:104F9000991F880F991F880F991F820F931FAC01CB
:104FA00040565A4F89819A819C012E5F3F4FCA011A
:104FB000B9010E9477220F900FBE80919605882339
:104FC00061F0E0918F05F09190059689E981FA8171
:104FD0008689981710F40E9432250F900F90CF9178
:104FE000DF910895DF93CF9300D000D000D0CDB7EC
:104FF000DEB79C838B830FB6F8940F928B819C81D4
:10500000009739F480918F05909190059E838D8350
:1050100004C08B819C819E838D838D819E819A8328
:10502000898389819A8102960E942723E981FA81E6
:1050300084899589009729F089819A810C960E942C
:10504000272380919A058F5F80939A0520918F0581
:105050003091900589819A818217930781F4898123
:105060009A819C012E5F3F4F80E196E0B9010E943A
:105070007722809191058F5F809391050BC080917D
:10508000920581508093920589819A810E94D62F42
:105090000E94EC2F0F900FBE80919605882359F047
:1050A00020918F053091900589819A81821793070D
:1050B00011F40E94322526960FB6F894DEBF0FBE7B
:1050C000CDBFCF91DF910895DF93CF93CDB7DEB7FA
:1050D0002A970FB6F894DEBF0FBECDBF98878F8397
:1050E0007A8769871B820E94652B80919305909136
:1050F00094059A838983EF81F885208131818985A0
:105100009A85820F931F9E838D83EF81F88520817E
:10511000318189819A818217930798F4EF81F8850C
:10512000208131818D819E8182179307E0F42D814A
:105130003E8189819A8182179307A8F481E08B834D
:1051400012C0EF81F885208131818D819E81821787
:10515000930738F02D813E8189819A8182179307C8
:1051600010F481E08B83EF81F8858D819E8191839E
:1051700080838B81882349F08D819E8129813A81AA
:10518000821B930B60E00E940F350E94712B8C8371
:105190008C81882311F40E9432252A960FB6F89448
:1051A000DEBF0FBECDBFCF91DF910895DF93CF93C8
:1051B00000D00F92CDB7DEB79B838A8319828A8194
:1051C0009B81009751F00E94652B8A819B8160E052
:1051D0000E940F350E94712B89838981882311F4E5
:1051E0000E9432250F900F900F90CF91DF9108957C
:1051F000DF93CF93CDB7DEB72A970FB6F894DEBF13
:105200000FBECDBF9F838E836887198288858930C2
:1052100010F088E088870FB6F8940F928E819F81F6
:10522000009739F480918F05909190059A8789872E
:1052300004C08E819F819A87898789859A859D83FD
:105240008C83EC81FD8181A18B839B81888598175C
:1052500009F48DC098858B818917A0F420918F0562
:10526000309190058C819D8182179307B1F0E09178
:105270008F05F091900596898885891770F081E0F7
:1052800089830BC020918F05309190058C819D8181
:105290008217930711F481E08983EC81FD8186896F
:1052A0008A83EC81FD8191A1EC81FD81868998172B
:1052B00021F4EC81FD818885868BEC81FD818885D8
:1052C00081A3EC81FD818485958599235CF0888597
:1052D000282F30E089E090E0821B930BEC81FD8168
:1052E00095878487EC81FD81428553858A81282FAB
:1052F00030E0C901880F991F880F991F880F991FE7
:10530000820F931F80569A4F4817590759F58C8181
:105310009D8102960E942723EC81FD8196898091D0
:105320009505891728F4EC81FD8186898093950580
:10533000EC81FD818689282F30E0C901880F991FF3
:10534000880F991F880F991F820F931FAC01405639
:105350005A4F8C819D819C012E5F3F4FCA01B9013C
:105360000E9477228981882311F00E9432250F90B4
:105370000FBE2A960FB6F894DEBF0FBECDBFCF91F9
:10538000DF910895DF93CF9300D000D000D0CDB748
:10539000DEB79C838B830FB6F8940F928B819C8130
:1053A000009739F480918F05909190059E838D83AD
:1053B00004C08B819C819E838D838D819E819A8385
:1053C000898389819A8102960E942723E981FA8143
:1053D00084899589009729F089819A810C960E9489
:1053E000272389819A819C012E5F3F4F89E196E0B6
:1053F000B9010E9477220F900FBE809196058823F5
:1054000039F00FB6F8940F920E94EC2F0F900FBE58
:1054100020918F053091900589819A818217930799
:10542000A1F480919605882319F00E9432250DC0C1
:105430009091190680919205981729F41092900581
:1054400010928F0502C00E942D2D26960FB6F8945B
:10545000DEBF0FBECDBFCF91DF910895DF93CF9315
:1054600000D000D00F92CDB7DEB79D838C831B8216
:105470008C819D819A838983E981FA8182859385D4
:1054800026E08931920781F4E981FA81848995893E
:1054900026E08730920741F0E981FA818489958975
:1054A000009711F481E08B838B810F900F900F9008
:1054B0000F900F90CF91DF910895DF93CF9300D09D
:1054C00000D0CDB7DEB79C838B838B819C819A8380
:1054D000898389819A81009709F44CC020918F05B6
:1054E0003091900589819A818217930709F442C00F
:1054F0000FB6F8940F9289819A810E942E2A8823F0
:10550000B9F189819A8102960E942723E981FA8163
:10551000968980919505891728F4E981FA81868911
:1055200080939505E981FA818689282F30E0C901A9
:10553000880F991F880F991F880F991F820F931F3B
:10554000AC0140565A4F89819A819C012E5F3F4F92
:10555000CA01B9010E947722E981FA819689E09116
:105560008F05F09190058689981710F00E943225DA
:105570000F900FBE0F900F900F900F90CF91DF9173
:105580000895DF93CF9300D000D000D0CDB7DEB721
:105590009E838D831C828D819E819B838A83198249
:1055A0008A819B810E942E2A882309F446C080911B
:1055B0009F058823C1F5EA81FB819689E0918F05DB
:1055C000F09190058689981710F081E08C838A818C
:1055D0009B8102960E942723EA81FB819689809114
:1055E0009505891728F4EA81FB81868980939505C2
:1055F000EA81FB818689282F30E0C901880F991F35
:10560000880F991F880F991F820F931FAC01405676
:105610005A4F8A819B819C012E5F3F4FCA01B9017D
:105620000E9477220AC08A819B819C01245F3F4FA0
:1056300087E096E0B9010E9477228C8126960FB60A
:10564000F894DEBF0FBECDBFCF91DF910895EF92EA
:10565000FF920F93DF93CF930F92CDB7DEB78CE419
:105660009FE220E630E0EDE9F5E0B90140E550E0E9
:1056700020E030E000E07F010E9447268983898195
:10568000813081F4F8948FEF9FEF90939C05809385
:105690009B0581E0809396051092940510929305E6
:1056A0000E94F6240F90CF91DF910F91FF90EF9021
:1056B0000895DF93CF93CDB7DEB7F8941092960597
:1056C0000E942B25CF91DF910895DF93CF93CDB723
:1056D000DEB780919F058F5F80939F05CF91DF910B
:1056E0000895DF93CF9300D000D0CDB7DEB71C82F2
:1056F0001B821A820FB6F8940F9280919F058150F9
:1057000080939F0580919F05882309F073C0809145
:105710009205882309F46EC045C0E0910C06F09113
:105720000D06868197819C838B838B819C810C964F
:105730000E9427238B819C8102960E942723EB8164
:10574000FC81968980919505891728F4EB81FC816D
:10575000868980939505EB81FC818689282F30E02E
:10576000C901880F991F880F991F880F991F820FF1
:10577000931FAC0140565A4F8B819C819C012E5F38
:105780003F4FCA01B9010E947722EB81FC819689C3
:10579000E0918F05F09190058689981718F081E0C7
:1057A0008093980580910706882309F0B6CF8B81F6
:1057B0009C81009711F00E94EC2F809197058983BE
:1057C0008981882379F00E94612C882319F081E077
:1057D000809398058981815089838981882399F7ED
:1057E0001092970580919805882321F081E08A83A3
:1057F0000E9432250F900FBE8A810F900F900F905C
:105800000F90CF91DF910895DF93CF9300D0CDB764
:10581000DEB70FB6F8940F9280919305909194059E
:105820009A8389830F900FBE89819A810F900F9080
:10583000CF91DF910895DF93CF9300D00F92CDB732
:10584000DEB7198280919305909194059B838A839A
:105850008A819B810F900F900F90CF91DF910895D7
:10586000DF93CF93CDB7DEB780919205CF91DF91D3
:105870000895DF93CF9300D000D000D0CDB7DEB72E
:105880009C838B838B819C81009739F480918F0559
:10589000909190059E838D8304C08B819C819E8313
:1058A0008D838D819E819A83898389819A8149968E
:1058B00026960FB6F894DEBF0FBECDBFCF91DF9115
:1058C0000895DF93CF93CDB7DEB729970FB6F8943D
:1058D000DEBF0FBECDBF1D8280919F05882309F0DA
:1058E000A7C0809193059091940501969C838B832A
:1058F0008B819C8190939405809393058B819C81EF
:105900000097D9F480910306909104069A838983C5
:1059100080910506909106069093040680930306F5
:1059200089819A8190930606809305068091990556
:105930008F5F809399050E94EC2F20919B053091F9
:105940009C058B819C818217930708F476C0E091B7
:105950000306F09104068081882339F48FEF9FEFCE
:1059600090939C0580939B0568C0E0910306F0919D
:1059700004060580F681E02D8681978199878887C6
:10598000E885F985828193819F838E832B813C8179
:105990008E819F812817390738F48E819F819093DB
:1059A0009C0580939B0549C08885998502960E9435
:1059B0002723E885F98584899589009729F08885CA
:1059C00099850C960E942723E885F9859689809110
:1059D0009505891728F4E885F985868980939505CA
:1059E000E885F9858689282F30E0C901880F991F3D
:1059F000880F991F880F991F820F931FAC01405683
:105A00005A4F888599859C012E5F3F4FCA01B90185
:105A10000E947722E885F9859689E0918F05F091BB
:105A200090058689981708F492CF81E08D838FCFF7
:105A3000809197058F5F80939705809198058823C3
:105A400011F081E08D838D8129960FB6F894DEBF29
:105A50000FBECDBFCF91DF910895DF93CF9300D0DC
:105A60000F92CDB7DEB780919F05882321F081E0AA
:105A70008093980559C010929805809195058B8365
:105A800003C08B8181508B838B81282F30E0C9012B
:105A9000880F991F880F991F880F991F820F931FD6
:105AA000FC01E056FA4F8081882359F38B81282F1F
:105AB00030E0C901880F991F880F991F880F991F1F
:105AC000820F931F80569A4F9A838983E981FA81C6
:105AD0000180F281E02D82819381E981FA819283B4
